{
  "contractName": "Token",
  "abi": [
    {
      "inputs": [
        {
          "internalType": "string",
          "name": "name_",
          "type": "string"
        },
        {
          "internalType": "string",
          "name": "symbol_",
          "type": "string"
        },
        {
          "internalType": "uint256",
          "name": "supply_",
          "type": "uint256"
        }
      ],
      "stateMutability": "nonpayable",
      "type": "constructor"
    },
    {
      "anonymous": false,
      "inputs": [
        {
          "indexed": true,
          "internalType": "address",
          "name": "owner",
          "type": "address"
        },
        {
          "indexed": true,
          "internalType": "address",
          "name": "spender",
          "type": "address"
        },
        {
          "indexed": false,
          "internalType": "uint256",
          "name": "value",
          "type": "uint256"
        }
      ],
      "name": "Approval",
      "type": "event"
    },
    {
      "anonymous": false,
      "inputs": [
        {
          "indexed": true,
          "internalType": "address",
          "name": "depositer",
          "type": "address"
        },
        {
          "indexed": false,
          "internalType": "uint256",
          "name": "amount",
          "type": "uint256"
        }
      ],
      "name": "Deposit",
      "type": "event"
    },
    {
      "anonymous": false,
      "inputs": [
        {
          "indexed": true,
          "internalType": "address",
          "name": "from",
          "type": "address"
        },
        {
          "indexed": true,
          "internalType": "address",
          "name": "to",
          "type": "address"
        },
        {
          "indexed": false,
          "internalType": "uint256",
          "name": "value",
          "type": "uint256"
        }
      ],
      "name": "Transfer",
      "type": "event"
    },
    {
      "anonymous": false,
      "inputs": [
        {
          "indexed": true,
          "internalType": "uint256",
          "name": "id",
          "type": "uint256"
        },
        {
          "indexed": true,
          "internalType": "address",
          "name": "withdrawer",
          "type": "address"
        },
        {
          "indexed": false,
          "internalType": "uint256",
          "name": "amount",
          "type": "uint256"
        }
      ],
      "name": "Withdrawal",
      "type": "event"
    },
    {
      "anonymous": false,
      "inputs": [
        {
          "indexed": false,
          "internalType": "uint256",
          "name": "from",
          "type": "uint256"
        },
        {
          "indexed": false,
          "internalType": "uint256",
          "name": "to",
          "type": "uint256"
        },
        {
          "indexed": false,
          "internalType": "uint256",
          "name": "batchSize",
          "type": "uint256"
        }
      ],
      "name": "WithdrawalHandled",
      "type": "event"
    },
    {
      "inputs": [],
      "name": "admin",
      "outputs": [
        {
          "internalType": "address",
          "name": "",
          "type": "address"
        }
      ],
      "stateMutability": "view",
      "type": "function"
    },
    {
      "inputs": [
        {
          "internalType": "address",
          "name": "owner",
          "type": "address"
        },
        {
          "internalType": "address",
          "name": "spender",
          "type": "address"
        }
      ],
      "name": "allowance",
      "outputs": [
        {
          "internalType": "uint256",
          "name": "",
          "type": "uint256"
        }
      ],
      "stateMutability": "view",
      "type": "function"
    },
    {
      "inputs": [
        {
          "internalType": "address",
          "name": "spender",
          "type": "address"
        },
        {
          "internalType": "uint256",
          "name": "amount",
          "type": "uint256"
        }
      ],
      "name": "approve",
      "outputs": [
        {
          "internalType": "bool",
          "name": "",
          "type": "bool"
        }
      ],
      "stateMutability": "nonpayable",
      "type": "function"
    },
    {
      "inputs": [
        {
          "internalType": "address",
          "name": "account",
          "type": "address"
        }
      ],
      "name": "balanceOf",
      "outputs": [
        {
          "internalType": "uint256",
          "name": "",
          "type": "uint256"
        }
      ],
      "stateMutability": "view",
      "type": "function"
    },
    {
      "inputs": [],
      "name": "decimals",
      "outputs": [
        {
          "internalType": "uint8",
          "name": "",
          "type": "uint8"
        }
      ],
      "stateMutability": "view",
      "type": "function"
    },
    {
      "inputs": [
        {
          "internalType": "address",
          "name": "spender",
          "type": "address"
        },
        {
          "internalType": "uint256",
          "name": "subtractedValue",
          "type": "uint256"
        }
      ],
      "name": "decreaseAllowance",
      "outputs": [
        {
          "internalType": "bool",
          "name": "",
          "type": "bool"
        }
      ],
      "stateMutability": "nonpayable",
      "type": "function"
    },
    {
      "inputs": [
        {
          "internalType": "address",
          "name": "",
          "type": "address"
        }
      ],
      "name": "deposits",
      "outputs": [
        {
          "internalType": "uint256",
          "name": "",
          "type": "uint256"
        }
      ],
      "stateMutability": "view",
      "type": "function"
    },
    {
      "inputs": [
        {
          "internalType": "address",
          "name": "spender",
          "type": "address"
        },
        {
          "internalType": "uint256",
          "name": "addedValue",
          "type": "uint256"
        }
      ],
      "name": "increaseAllowance",
      "outputs": [
        {
          "internalType": "bool",
          "name": "",
          "type": "bool"
        }
      ],
      "stateMutability": "nonpayable",
      "type": "function"
    },
    {
      "inputs": [],
      "name": "name",
      "outputs": [
        {
          "internalType": "string",
          "name": "",
          "type": "string"
        }
      ],
      "stateMutability": "view",
      "type": "function"
    },
    {
      "inputs": [],
      "name": "pendingWithdrawals",
      "outputs": [
        {
          "internalType": "uint256",
          "name": "",
          "type": "uint256"
        }
      ],
      "stateMutability": "view",
      "type": "function"
    },
    {
      "inputs": [],
      "name": "symbol",
      "outputs": [
        {
          "internalType": "string",
          "name": "",
          "type": "string"
        }
      ],
      "stateMutability": "view",
      "type": "function"
    },
    {
      "inputs": [],
      "name": "totalSupply",
      "outputs": [
        {
          "internalType": "uint256",
          "name": "",
          "type": "uint256"
        }
      ],
      "stateMutability": "view",
      "type": "function"
    },
    {
      "inputs": [
        {
          "internalType": "address",
          "name": "recipient",
          "type": "address"
        },
        {
          "internalType": "uint256",
          "name": "amount",
          "type": "uint256"
        }
      ],
      "name": "transfer",
      "outputs": [
        {
          "internalType": "bool",
          "name": "",
          "type": "bool"
        }
      ],
      "stateMutability": "nonpayable",
      "type": "function"
    },
    {
      "inputs": [
        {
          "internalType": "address",
          "name": "sender",
          "type": "address"
        },
        {
          "internalType": "address",
          "name": "recipient",
          "type": "address"
        },
        {
          "internalType": "uint256",
          "name": "amount",
          "type": "uint256"
        }
      ],
      "name": "transferFrom",
      "outputs": [
        {
          "internalType": "bool",
          "name": "",
          "type": "bool"
        }
      ],
      "stateMutability": "nonpayable",
      "type": "function"
    },
    {
      "inputs": [
        {
          "internalType": "uint256",
          "name": "",
          "type": "uint256"
        }
      ],
      "name": "withdraws",
      "outputs": [
        {
          "internalType": "address",
          "name": "withdrawer",
          "type": "address"
        },
        {
          "internalType": "uint256",
          "name": "amount",
          "type": "uint256"
        }
      ],
      "stateMutability": "view",
      "type": "function"
    },
    {
      "inputs": [
        {
          "internalType": "uint256",
          "name": "amount",
          "type": "uint256"
        }
      ],
      "name": "deposit",
      "outputs": [],
      "stateMutability": "nonpayable",
      "type": "function"
    },
    {
      "inputs": [
        {
          "internalType": "uint256",
          "name": "amount",
          "type": "uint256"
        }
      ],
      "name": "withdraw",
      "outputs": [],
      "stateMutability": "nonpayable",
      "type": "function"
    },
    {
      "inputs": [
        {
          "internalType": "uint256",
          "name": "batchSize",
          "type": "uint256"
        }
      ],
      "name": "handleWithdrawals",
      "outputs": [],
      "stateMutability": "nonpayable",
      "type": "function"
    }
  ],
  "bytecode": "0x60806040523480156200001157600080fd5b506040516200230938038062002309833981810160405281019062000037919062000385565b82828160039080519060200190620000519291906200024c565b5080600490805190602001906200006a9291906200024c565b5050506200007f3382620000c960201b60201c565b33600560006101000a81548173ffffffffffffffffffffffffffffffffffffffff021916908373ffffffffffffffffffffffffffffffffffffffff16021790555050505062000691565b600073ffffffffffffffffffffffffffffffffffffffff168273ffffffffffffffffffffffffffffffffffffffff1614156200013c576040517f08c379a0000000000000000000000000000000000000000000000000000000008152600401620001339062000460565b60405180910390fd5b62000150600083836200024260201b60201c565b806002600082825462000164919062000517565b92505081905550806000808473ffffffffffffffffffffffffffffffffffffffff1673ffffffffffffffffffffffffffffffffffffffff1681526020019081526020016000206000828254620001bb919062000517565b925050819055508173ffffffffffffffffffffffffffffffffffffffff16600073ffffffffffffffffffffffffffffffffffffffff167fddf252ad1be2c89b69c2b068fc378daa952ba7f163c4a11628f55a4df523b3ef8360405162000222919062000482565b60405180910390a36200023e600083836200024760201b60201c565b5050565b505050565b505050565b8280546200025a90620005b4565b90600052602060002090601f0160209004810192826200027e5760008555620002ca565b82601f106200029957805160ff1916838001178555620002ca565b82800160010185558215620002ca579182015b82811115620002c9578251825591602001919060010190620002ac565b5b509050620002d99190620002dd565b5090565b5b80821115620002f8576000816000905550600101620002de565b5090565b6000620003136200030d84620004d3565b6200049f565b9050828152602081018484840111156200032c57600080fd5b620003398482856200057e565b509392505050565b600082601f8301126200035357600080fd5b815162000365848260208601620002fc565b91505092915050565b6000815190506200037f8162000677565b92915050565b6000806000606084860312156200039b57600080fd5b600084015167ffffffffffffffff811115620003b657600080fd5b620003c48682870162000341565b935050602084015167ffffffffffffffff811115620003e257600080fd5b620003f08682870162000341565b925050604062000403868287016200036e565b9150509250925092565b60006200041c601f8362000506565b91507f45524332303a206d696e7420746f20746865207a65726f2061646472657373006000830152602082019050919050565b6200045a8162000574565b82525050565b600060208201905081810360008301526200047b816200040d565b9050919050565b60006020820190506200049960008301846200044f565b92915050565b6000604051905081810181811067ffffffffffffffff82111715620004c957620004c862000648565b5b8060405250919050565b600067ffffffffffffffff821115620004f157620004f062000648565b5b601f19601f8301169050602081019050919050565b600082825260208201905092915050565b6000620005248262000574565b9150620005318362000574565b9250827fffffffffffffffffffffffffffffffffffffffffffffffffffffffffffffffff03821115620005695762000568620005ea565b5b828201905092915050565b6000819050919050565b60005b838110156200059e57808201518184015260208101905062000581565b83811115620005ae576000848401525b50505050565b60006002820490506001821680620005cd57607f821691505b60208210811415620005e457620005e362000619565b5b50919050565b7f4e487b7100000000000000000000000000000000000000000000000000000000600052601160045260246000fd5b7f4e487b7100000000000000000000000000000000000000000000000000000000600052602260045260246000fd5b7f4e487b7100000000000000000000000000000000000000000000000000000000600052604160045260246000fd5b620006828162000574565b81146200068e57600080fd5b50565b611c6880620006a16000396000f3fe608060405234801561001057600080fd5b50600436106101165760003560e01c806370a08231116100a2578063b6b55f2511610071578063b6b55f251461031c578063beca03d514610338578063dd62ed3e14610356578063f851a44014610386578063fc7e286d146103a457610116565b806370a082311461026e57806395d89b411461029e578063a457c2d7146102bc578063a9059cbb146102ec57610116565b806323b872dd116100e957806323b872dd146101a35780632e1a7d4d146101d3578063313ce567146101ef578063395093511461020d57806355466c371461023d57610116565b806301b86d121461011b57806306fdde0314610137578063095ea7b31461015557806318160ddd14610185575b600080fd5b61013560048036038101906101309190611396565b6103d4565b005b61013f610600565b60405161014c919061181d565b60405180910390f35b61016f600480360381019061016a919061135a565b610692565b60405161017c9190611802565b60405180910390f35b61018d6106b0565b60405161019a919061197f565b60405180910390f35b6101bd60048036038101906101b8919061130b565b6106ba565b6040516101ca9190611802565b60405180910390f35b6101ed60048036038101906101e89190611396565b6107b2565b005b6101f7610938565b60405161020491906119d1565b60405180910390f35b6102276004803603810190610222919061135a565b610941565b6040516102349190611802565b60405180910390f35b61025760048036038101906102529190611396565b6109ed565b6040516102659291906117d9565b60405180910390f35b610288600480360381019061028391906112a6565b610a31565b604051610295919061197f565b60405180910390f35b6102a6610a79565b6040516102b3919061181d565b60405180910390f35b6102d660048036038101906102d1919061135a565b610b0b565b6040516102e39190611802565b60405180910390f35b6103066004803603810190610301919061135a565b610bf6565b6040516103139190611802565b60405180910390f35b61033660048036038101906103319190611396565b610c14565b005b610340610d27565b60405161034d919061197f565b60405180910390f35b610370600480360381019061036b91906112cf565b610d2d565b60405161037d919061197f565b60405180910390f35b61038e610db4565b60405161039b91906117be565b60405180910390f35b6103be60048036038101906103b991906112a6565b610dda565b6040516103cb919061197f565b60405180910390f35b600560009054906101000a900473ffffffffffffffffffffffffffffffffffffffff1673ffffffffffffffffffffffffffffffffffffffff163373ffffffffffffffffffffffffffffffffffffffff1614610464576040517f08c379a000000000000000000000000000000000000000000000000000000000815260040161045b9061193f565b60405180910390fd5b6000600654116104a9576040517f08c379a00000000000000000000000000000000000000000000000000000000081526004016104a0906118df565b60405180910390fd5b6000600654905060005b828110156105be57610538600560009054906101000a900473ffffffffffffffffffffffffffffffffffffffff1660086000600654815260200190815260200160002060000160009054906101000a900473ffffffffffffffffffffffffffffffffffffffff1660086000600654815260200190815260200160002060010154610df2565b600860006006548152602001908152602001600020600080820160006101000a81549073ffffffffffffffffffffffffffffffffffffffff021916905560018201600090555050610595600160065461107390919063ffffffff16565b600681905550600060065414156105ab576105be565b80806105b690611b4c565b9150506104b3565b507f50d9276253fcd2b3025af851fb64fdacaa8a7c62ad274e5d54595d2b84a1605481600654846040516105f49392919061199a565b60405180910390a15050565b60606003805461060f90611b1a565b80601f016020809104026020016040519081016040528092919081815260200182805461063b90611b1a565b80156106885780601f1061065d57610100808354040283529160200191610688565b820191906000526020600020905b81548152906001019060200180831161066b57829003601f168201915b5050505050905090565b60006106a661069f611089565b8484611091565b6001905092915050565b6000600254905090565b60006106c7848484610df2565b6000600160008673ffffffffffffffffffffffffffffffffffffffff1673ffffffffffffffffffffffffffffffffffffffff1681526020019081526020016000206000610712611089565b73ffffffffffffffffffffffffffffffffffffffff1673ffffffffffffffffffffffffffffffffffffffff16815260200190815260200160002054905082811015610792576040517f08c379a0000000000000000000000000000000000000000000000000000000008152600401610789906118bf565b60405180910390fd5b6107a68561079e611089565b858403611091565b60019150509392505050565b80600760003373ffffffffffffffffffffffffffffffffffffffff1673ffffffffffffffffffffffffffffffffffffffff168152602001908152602001600020541015610834576040517f08c379a000000000000000000000000000000000000000000000000000000000815260040161082b9061187f565b60405180910390fd5b61084a600160065461125c90919063ffffffff16565b60068190555060405180604001604052803373ffffffffffffffffffffffffffffffffffffffff1681526020018281525060086000600654815260200190815260200160002060008201518160000160006101000a81548173ffffffffffffffffffffffffffffffffffffffff021916908373ffffffffffffffffffffffffffffffffffffffff160217905550602082015181600101559050503373ffffffffffffffffffffffffffffffffffffffff166006547f37e8063b72a944a76de602f32b82fd8c2a1c6f99564c727ffaf913c7762cd4208360405161092d919061197f565b60405180910390a350565b60006012905090565b60006109e361094e611089565b84846001600061095c611089565b73ffffffffffffffffffffffffffffffffffffffff1673ffffffffffffffffffffffffffffffffffffffff16815260200190815260200160002060008873ffffffffffffffffffffffffffffffffffffffff1673ffffffffffffffffffffffffffffffffffffffff168152602001908152602001600020546109de9190611a08565b611091565b6001905092915050565b60086020528060005260406000206000915090508060000160009054906101000a900473ffffffffffffffffffffffffffffffffffffffff16908060010154905082565b60008060008373ffffffffffffffffffffffffffffffffffffffff1673ffffffffffffffffffffffffffffffffffffffff168152602001908152602001600020549050919050565b606060048054610a8890611b1a565b80601f0160208091040260200160405190810160405280929190818152602001828054610ab490611b1a565b8015610b015780601f10610ad657610100808354040283529160200191610b01565b820191906000526020600020905b815481529060010190602001808311610ae457829003601f168201915b5050505050905090565b60008060016000610b1a611089565b73ffffffffffffffffffffffffffffffffffffffff1673ffffffffffffffffffffffffffffffffffffffff16815260200190815260200160002060008573ffffffffffffffffffffffffffffffffffffffff1673ffffffffffffffffffffffffffffffffffffffff16815260200190815260200160002054905082811015610bd7576040517f08c379a0000000000000000000000000000000000000000000000000000000008152600401610bce9061195f565b60405180910390fd5b610beb610be2611089565b85858403611091565b600191505092915050565b6000610c0a610c03611089565b8484610df2565b6001905092915050565b610c40600560009054906101000a900473ffffffffffffffffffffffffffffffffffffffff1682610bf6565b50610c9381600760003373ffffffffffffffffffffffffffffffffffffffff1673ffffffffffffffffffffffffffffffffffffffff1681526020019081526020016000205461125c90919063ffffffff16565b600760003373ffffffffffffffffffffffffffffffffffffffff1673ffffffffffffffffffffffffffffffffffffffff168152602001908152602001600020819055503373ffffffffffffffffffffffffffffffffffffffff167fe1fffcc4923d04b559f4d29a8bfc6cda04eb5b0d3c460751c2402c5c5cc9109c82604051610d1c919061197f565b60405180910390a250565b60065481565b6000600160008473ffffffffffffffffffffffffffffffffffffffff1673ffffffffffffffffffffffffffffffffffffffff16815260200190815260200160002060008373ffffffffffffffffffffffffffffffffffffffff1673ffffffffffffffffffffffffffffffffffffffff16815260200190815260200160002054905092915050565b600560009054906101000a900473ffffffffffffffffffffffffffffffffffffffff1681565b60076020528060005260406000206000915090505481565b600073ffffffffffffffffffffffffffffffffffffffff168373ffffffffffffffffffffffffffffffffffffffff161415610e62576040517f08c379a0000000000000000000000000000000000000000000000000000000008152600401610e59906118ff565b60405180910390fd5b600073ffffffffffffffffffffffffffffffffffffffff168273ffffffffffffffffffffffffffffffffffffffff161415610ed2576040517f08c379a0000000000000000000000000000000000000000000000000000000008152600401610ec99061183f565b60405180910390fd5b610edd838383611272565b60008060008573ffffffffffffffffffffffffffffffffffffffff1673ffffffffffffffffffffffffffffffffffffffff16815260200190815260200160002054905081811015610f63576040517f08c379a0000000000000000000000000000000000000000000000000000000008152600401610f5a9061189f565b60405180910390fd5b8181036000808673ffffffffffffffffffffffffffffffffffffffff1673ffffffffffffffffffffffffffffffffffffffff16815260200190815260200160002081905550816000808573ffffffffffffffffffffffffffffffffffffffff1673ffffffffffffffffffffffffffffffffffffffff1681526020019081526020016000206000828254610ff69190611a08565b925050819055508273ffffffffffffffffffffffffffffffffffffffff168473ffffffffffffffffffffffffffffffffffffffff167fddf252ad1be2c89b69c2b068fc378daa952ba7f163c4a11628f55a4df523b3ef8460405161105a919061197f565b60405180910390a361106d848484611277565b50505050565b600081836110819190611a5e565b905092915050565b600033905090565b600073ffffffffffffffffffffffffffffffffffffffff168373ffffffffffffffffffffffffffffffffffffffff161415611101576040517f08c379a00000000000000000000000000000000000000000000000000000000081526004016110f89061191f565b60405180910390fd5b600073ffffffffffffffffffffffffffffffffffffffff168273ffffffffffffffffffffffffffffffffffffffff161415611171576040517f08c379a00000000000000000000000000000000000000000000000000000000081526004016111689061185f565b60405180910390fd5b80600160008573ffffffffffffffffffffffffffffffffffffffff1673ffffffffffffffffffffffffffffffffffffffff16815260200190815260200160002060008473ffffffffffffffffffffffffffffffffffffffff1673ffffffffffffffffffffffffffffffffffffffff168152602001908152602001600020819055508173ffffffffffffffffffffffffffffffffffffffff168373ffffffffffffffffffffffffffffffffffffffff167f8c5be1e5ebec7d5bd14f71427d1e84f3dd0314c0f7b2291e5b200ac8c7c3b9258360405161124f919061197f565b60405180910390a3505050565b6000818361126a9190611a08565b905092915050565b505050565b505050565b60008135905061128b81611c04565b92915050565b6000813590506112a081611c1b565b92915050565b6000602082840312156112b857600080fd5b60006112c68482850161127c565b91505092915050565b600080604083850312156112e257600080fd5b60006112f08582860161127c565b92505060206113018582860161127c565b9150509250929050565b60008060006060848603121561132057600080fd5b600061132e8682870161127c565b935050602061133f8682870161127c565b925050604061135086828701611291565b9150509250925092565b6000806040838503121561136d57600080fd5b600061137b8582860161127c565b925050602061138c85828601611291565b9150509250929050565b6000602082840312156113a857600080fd5b60006113b684828501611291565b91505092915050565b6113c881611a92565b82525050565b6113d781611aa4565b82525050565b60006113e8826119ec565b6113f281856119f7565b9350611402818560208601611ae7565b61140b81611bf3565b840191505092915050565b60006114236023836119f7565b91507f45524332303a207472616e7366657220746f20746865207a65726f206164647260008301527f65737300000000000000000000000000000000000000000000000000000000006020830152604082019050919050565b60006114896022836119f7565b91507f45524332303a20617070726f766520746f20746865207a65726f20616464726560008301527f73730000000000000000000000000000000000000000000000000000000000006020830152604082019050919050565b60006114ef601c836119f7565b91507f696e73756666696369656e742066756e6473206465706f7369746564000000006000830152602082019050919050565b600061152f6026836119f7565b91507f45524332303a207472616e7366657220616d6f756e742065786365656473206260008301527f616c616e636500000000000000000000000000000000000000000000000000006020830152604082019050919050565b60006115956028836119f7565b91507f45524332303a207472616e7366657220616d6f756e742065786365656473206160008301527f6c6c6f77616e63650000000000000000000000000000000000000000000000006020830152604082019050919050565b60006115fb6018836119f7565b91507f6e6f207769746864726177616c732072657175657374656400000000000000006000830152602082019050919050565b600061163b6025836119f7565b91507f45524332303a207472616e736665722066726f6d20746865207a65726f20616460008301527f64726573730000000000000000000000000000000000000000000000000000006020830152604082019050919050565b60006116a16024836119f7565b91507f45524332303a20617070726f76652066726f6d20746865207a65726f2061646460008301527f72657373000000000000000000000000000000000000000000000000000000006020830152604082019050919050565b6000611707601e836119f7565b91507f756e617574686f72697a65643a2063616c6c6572206e6f742061646d696e00006000830152602082019050919050565b60006117476025836119f7565b91507f45524332303a2064656372656173656420616c6c6f77616e63652062656c6f7760008301527f207a65726f0000000000000000000000000000000000000000000000000000006020830152604082019050919050565b6117a981611ad0565b82525050565b6117b881611ada565b82525050565b60006020820190506117d360008301846113bf565b92915050565b60006040820190506117ee60008301856113bf565b6117fb60208301846117a0565b9392505050565b600060208201905061181760008301846113ce565b92915050565b6000602082019050818103600083015261183781846113dd565b905092915050565b6000602082019050818103600083015261185881611416565b9050919050565b600060208201905081810360008301526118788161147c565b9050919050565b60006020820190508181036000830152611898816114e2565b9050919050565b600060208201905081810360008301526118b881611522565b9050919050565b600060208201905081810360008301526118d881611588565b9050919050565b600060208201905081810360008301526118f8816115ee565b9050919050565b600060208201905081810360008301526119188161162e565b9050919050565b6000602082019050818103600083015261193881611694565b9050919050565b60006020820190508181036000830152611958816116fa565b9050919050565b600060208201905081810360008301526119788161173a565b9050919050565b600060208201905061199460008301846117a0565b92915050565b60006060820190506119af60008301866117a0565b6119bc60208301856117a0565b6119c960408301846117a0565b949350505050565b60006020820190506119e660008301846117af565b92915050565b600081519050919050565b600082825260208201905092915050565b6000611a1382611ad0565b9150611a1e83611ad0565b9250827fffffffffffffffffffffffffffffffffffffffffffffffffffffffffffffffff03821115611a5357611a52611b95565b5b828201905092915050565b6000611a6982611ad0565b9150611a7483611ad0565b925082821015611a8757611a86611b95565b5b828203905092915050565b6000611a9d82611ab0565b9050919050565b60008115159050919050565b600073ffffffffffffffffffffffffffffffffffffffff82169050919050565b6000819050919050565b600060ff82169050919050565b60005b83811015611b05578082015181840152602081019050611aea565b83811115611b14576000848401525b50505050565b60006002820490506001821680611b3257607f821691505b60208210811415611b4657611b45611bc4565b5b50919050565b6000611b5782611ad0565b91507fffffffffffffffffffffffffffffffffffffffffffffffffffffffffffffffff821415611b8a57611b89611b95565b5b600182019050919050565b7f4e487b7100000000000000000000000000000000000000000000000000000000600052601160045260246000fd5b7f4e487b7100000000000000000000000000000000000000000000000000000000600052602260045260246000fd5b6000601f19601f8301169050919050565b611c0d81611a92565b8114611c1857600080fd5b50565b611c2481611ad0565b8114611c2f57600080fd5b5056fea2646970667358221220ff92a2860af8d69687414dd50ee5adb7b2a85e36797ee986b1345ed87ece3beb64736f6c63430008000033",
  "immutableReferences": {},
  "source": "// SPDX-License-Identifier: MIT\npragma solidity ^ 0.8.0;\n\nimport '@openzeppelin/contracts/token/ERC20/ERC20.sol';\nimport '@openzeppelin/contracts/utils/math/SafeMath.sol';\n\n/// @title Token - ERC20 Token\n/// @author Naveed\n/// @notice This is an ERC20 token, allowing users to deposit & withdraw tokens.\n/// @dev Except standard ERC20 token's features, this smartcontract has two additional features through which\n//       token holders can deposit their tokens to admin and can their deposited tokens. \ncontract Token is ERC20 {\n  using SafeMath for uint256;\n  /// @notice account which handle users withdrawal requests\n  address public admin;\n  /// @notice count to track pending withdrawals\n  uint256 public pendingWithdrawals;\n\n  /// @notice mapping to track users deposits\n  /// @dev depositer address => total amount depositer has deposited\n  mapping (address => uint256) public deposits;\n\n  /// @notice mapping to track users withdraw requests\n  /// @dev withdrawId => Withdraw struct\n  mapping (uint256 => Withdraw) public withdraws;\n\n  /// @dev struct being used in above withdraws mapping, to manage Withdrawer information\n  struct Withdraw {\n    address withdrawer;\n    uint256 amount;\n  }\n\n  /// @dev constructor to initialize Token contract.\n  /// @param name_ name of ERC20 token\n  /// @param symbol_ symbol of token\n  /// @param supply_ total supply of token\n  constructor(string memory name_, string memory symbol_, uint256 supply_) ERC20(name_, symbol_) {\n    _mint(msg.sender, supply_);\n    admin = msg.sender;\n  }\n\n  /// @notice this function is to let token holder deposit his tokens to admin wallet/account.\n  /// @dev token holders can deposit as much tokens as he wants in more than one transactions. Total deposit amount gets updated each time.\n  /// @param amount amount of the tokens depositer want to deposit.\n  function deposit(uint256 amount) public {\n    // escrowing tokens by transferring to admin wallet\n    transfer(admin, amount);\n    deposits[msg.sender] = deposits[msg.sender].add(amount);\n    emit Deposit(msg.sender, amount);\n  }\n\n  /// @notice this function is to let token holder withdraw his tokens from admin wallet/account.\n  /// @dev token holders can withdraw as much tokens as he wants in more than one transactions.\n  /// @param amount amount of the tokens withdrawer want to withdraw\n  /// **** condition: withdrawer must have deposited enought tokens first.\n  function withdraw(uint256 amount) public {\n    require(deposits[msg.sender] >= amount, \"insufficient funds deposited\");\n    // _transfer(admin, msg.sender, amount);\n    pendingWithdrawals = pendingWithdrawals.add(1);\n    withdraws[pendingWithdrawals] = Withdraw(msg.sender,amount);\n    \n    emit Withdrawal(pendingWithdrawals, msg.sender, amount);\n  }\n\n  /// @notice this function is to let admin handle withdraw requests of withdrawers by sending them back their deposited amount as per their withdraw request.\n  /// @dev only admin can trigger this function.\n  /// @param batchSize number of withdraws to process\n  /// **** condition: withdraws must be requested first by users/withdrawers.\n  function handleWithdrawals(uint256 batchSize) onlyAdmin public {\n    require(pendingWithdrawals > 0, \"no withdrawals requested\");\n    uint256 from = pendingWithdrawals;\n\n    for (uint256 i = 0; i < batchSize; i++) {\n        _transfer(admin, withdraws[pendingWithdrawals].withdrawer, withdraws[pendingWithdrawals].amount);\n        delete withdraws[pendingWithdrawals];\n        pendingWithdrawals = pendingWithdrawals.sub(1);\n        if (pendingWithdrawals == 0){\n          break;\n        }\n    }\n    emit WithdrawalHandled(from, pendingWithdrawals, batchSize);\n  }\n/// @dev modifier to ensure caller is admin\n  modifier onlyAdmin() {\n    require(msg.sender == admin, \"unauthorized: caller not admin\");\n    _;\n  }\n\n  // Events\n  event Deposit(address indexed depositer, uint256 amount);\n  event Withdrawal(uint256 indexed id, address indexed withdrawer, uint256 amount);\n  event WithdrawalHandled(uint256 from, uint256 to, uint256 batchSize);\n}\n",
  "sourcePath": "/home/malik/Work/work/task/Plutus_task/smartcontract/contracts/Token.sol",
  "compiler": {
    "name": "solc",
    "version": "0.8.0+commit.c7dfd78e.Emscripten.clang"
  },
  "schemaVersion": "3.1.0",
  "updatedAt": "2022-01-22T19:33:04.538Z",
  "devdoc": {
    "author": "Naveed",
    "details": "Except standard ERC20 token's features, this smartcontract has two additional features through which",
    "kind": "dev",
    "methods": {
      "allowance(address,address)": {
        "details": "See {IERC20-allowance}."
      },
      "approve(address,uint256)": {
        "details": "See {IERC20-approve}. Requirements: - `spender` cannot be the zero address."
      },
      "balanceOf(address)": {
        "details": "See {IERC20-balanceOf}."
      },
      "constructor": {
        "details": "constructor to initialize Token contract.",
        "params": {
          "name_": "name of ERC20 token",
          "supply_": "total supply of token",
          "symbol_": "symbol of token"
        }
      },
      "decimals()": {
        "details": "Returns the number of decimals used to get its user representation. For example, if `decimals` equals `2`, a balance of `505` tokens should be displayed to a user as `5.05` (`505 / 10 ** 2`). Tokens usually opt for a value of 18, imitating the relationship between Ether and Wei. This is the value {ERC20} uses, unless this function is overridden; NOTE: This information is only used for _display_ purposes: it in no way affects any of the arithmetic of the contract, including {IERC20-balanceOf} and {IERC20-transfer}."
      },
      "decreaseAllowance(address,uint256)": {
        "details": "Atomically decreases the allowance granted to `spender` by the caller. This is an alternative to {approve} that can be used as a mitigation for problems described in {IERC20-approve}. Emits an {Approval} event indicating the updated allowance. Requirements: - `spender` cannot be the zero address. - `spender` must have allowance for the caller of at least `subtractedValue`."
      },
      "deposit(uint256)": {
        "details": "token holders can deposit as much tokens as he wants in more than one transactions. Total deposit amount gets updated each time.",
        "params": {
          "amount": "amount of the tokens depositer want to deposit."
        }
      },
      "handleWithdrawals(uint256)": {
        "details": "only admin can trigger this function.",
        "params": {
          "batchSize": "number of withdraws to process **** condition: withdraws must be requested first by users/withdrawers."
        }
      },
      "increaseAllowance(address,uint256)": {
        "details": "Atomically increases the allowance granted to `spender` by the caller. This is an alternative to {approve} that can be used as a mitigation for problems described in {IERC20-approve}. Emits an {Approval} event indicating the updated allowance. Requirements: - `spender` cannot be the zero address."
      },
      "name()": {
        "details": "Returns the name of the token."
      },
      "symbol()": {
        "details": "Returns the symbol of the token, usually a shorter version of the name."
      },
      "totalSupply()": {
        "details": "See {IERC20-totalSupply}."
      },
      "transfer(address,uint256)": {
        "details": "See {IERC20-transfer}. Requirements: - `recipient` cannot be the zero address. - the caller must have a balance of at least `amount`."
      },
      "transferFrom(address,address,uint256)": {
        "details": "See {IERC20-transferFrom}. Emits an {Approval} event indicating the updated allowance. This is not required by the EIP. See the note at the beginning of {ERC20}. Requirements: - `sender` and `recipient` cannot be the zero address. - `sender` must have a balance of at least `amount`. - the caller must have allowance for ``sender``'s tokens of at least `amount`."
      },
      "withdraw(uint256)": {
        "details": "token holders can withdraw as much tokens as he wants in more than one transactions.",
        "params": {
          "amount": "amount of the tokens withdrawer want to withdraw **** condition: withdrawer must have deposited enought tokens first."
        }
      }
    },
    "stateVariables": {
      "deposits": {
        "details": "depositer address => total amount depositer has deposited"
      },
      "withdraws": {
        "details": "withdrawId => Withdraw struct"
      }
    },
    "title": "Token - ERC20 Token",
    "version": 1
  },
  "userdoc": {
    "kind": "user",
    "methods": {
      "admin()": {
        "notice": "account which handle users withdrawal requests"
      },
      "deposit(uint256)": {
        "notice": "this function is to let token holder deposit his tokens to admin wallet/account."
      },
      "deposits(address)": {
        "notice": "mapping to track users deposits"
      },
      "handleWithdrawals(uint256)": {
        "notice": "this function is to let admin handle withdraw requests of withdrawers by sending them back their deposited amount as per their withdraw request."
      },
      "pendingWithdrawals()": {
        "notice": "count to track pending withdrawals"
      },
      "withdraw(uint256)": {
        "notice": "this function is to let token holder withdraw his tokens from admin wallet/account."
      },
      "withdraws(uint256)": {
        "notice": "mapping to track users withdraw requests"
      }
    },
    "notice": "This is an ERC20 token, allowing users to deposit & withdraw tokens.",
    "version": 1
  }
}